{
  "_format": "hh-sol-artifact-1",
  "contractName": "ETHCollector",
  "sourceName": "contracts/poolValidatorETH.sol",
  "abi": [
    {
      "inputs": [],
      "name": "TARGET_BALANCE",
      "outputs": [
        {
          "internalType": "uint256",
          "name": "",
          "type": "uint256"
        }
      ],
      "stateMutability": "view",
      "type": "function"
    },
    {
      "inputs": [],
      "name": "WITHDRAWAL_ADDRESS",
      "outputs": [
        {
          "internalType": "address",
          "name": "",
          "type": "address"
        }
      ],
      "stateMutability": "view",
      "type": "function"
    },
    {
      "inputs": [],
      "name": "deposit",
      "outputs": [],
      "stateMutability": "payable",
      "type": "function"
    },
    {
      "inputs": [
        {
          "internalType": "address",
          "name": "",
          "type": "address"
        }
      ],
      "name": "deposits",
      "outputs": [
        {
          "internalType": "uint256",
          "name": "",
          "type": "uint256"
        }
      ],
      "stateMutability": "view",
      "type": "function"
    },
    {
      "inputs": [],
      "name": "getBalance",
      "outputs": [
        {
          "internalType": "uint256",
          "name": "",
          "type": "uint256"
        }
      ],
      "stateMutability": "view",
      "type": "function"
    },
    {
      "inputs": [],
      "name": "isPaused",
      "outputs": [
        {
          "internalType": "bool",
          "name": "",
          "type": "bool"
        }
      ],
      "stateMutability": "view",
      "type": "function"
    },
    {
      "inputs": [],
      "name": "totalDeposits",
      "outputs": [
        {
          "internalType": "uint256",
          "name": "",
          "type": "uint256"
        }
      ],
      "stateMutability": "view",
      "type": "function"
    },
    {
      "inputs": [],
      "name": "withdraw",
      "outputs": [],
      "stateMutability": "nonpayable",
      "type": "function"
    }
  ],
  "bytecode": "0x608060405234801561001057600080fd5b5061080c806100206000396000f3fe60806040526004361061007b5760003560e01c80639be7ef641161004e5780639be7ef6414610118578063b187bd2614610143578063d0e30db01461016e578063fc7e286d146101785761007b565b806312065fe0146100805780632601d3c7146100ab5780633ccfd60b146100d65780637d882097146100ed575b600080fd5b34801561008c57600080fd5b506100956101b5565b6040516100a2919061054b565b60405180910390f35b3480156100b757600080fd5b506100c06101fb565b6040516100cd91906105a7565b60405180910390f35b3480156100e257600080fd5b506100eb610213565b005b3480156100f957600080fd5b50610102610390565b60405161010f919061054b565b60405180910390f35b34801561012457600080fd5b5061012d610396565b60405161013a919061054b565b60405180910390f35b34801561014f57600080fd5b506101586103a3565b60405161016591906105dd565b60405180910390f35b6101766103b6565b005b34801561018457600080fd5b5061019f600480360381019061019a9190610629565b61051a565b6040516101ac919061054b565b60405180910390f35b60008060003373ffffffffffffffffffffffffffffffffffffffff1673ffffffffffffffffffffffffffffffffffffffff16815260200190815260200160002054905090565b73728d820c813e7cd9652c99355160480f9282a5ab81565b600260009054906101000a900460ff1615610263576040517f08c379a000000000000000000000000000000000000000000000000000000000815260040161025a906106b3565b60405180910390fd5b60008060003373ffffffffffffffffffffffffffffffffffffffff1673ffffffffffffffffffffffffffffffffffffffff168152602001908152602001600020549050600081116102e9576040517f08c379a00000000000000000000000000000000000000000000000000000000081526004016102e09061071f565b60405180910390fd5b60008060003373ffffffffffffffffffffffffffffffffffffffff1673ffffffffffffffffffffffffffffffffffffffff16815260200190815260200160002081905550806001600082825461033f919061076e565b925050819055503373ffffffffffffffffffffffffffffffffffffffff166108fc829081150290604051600060405180830381858888f1935050505015801561038c573d6000803e3d6000fd5b5050565b60015481565b6801bc16d674ec80000081565b600260009054906101000a900460ff1681565b600260009054906101000a900460ff1615610406576040517f08c379a00000000000000000000000000000000000000000000000000000000081526004016103fd906106b3565b60405180910390fd5b346000803373ffffffffffffffffffffffffffffffffffffffff1673ffffffffffffffffffffffffffffffffffffffff168152602001908152602001600020600082825461045491906107a2565b92505081905550346001600082825461046d91906107a2565b925050819055506801bc16d674ec8000006001541015801561049c5750600260009054906101000a900460ff16155b15610518576001600260006101000a81548160ff02191690831515021790555073728d820c813e7cd9652c99355160480f9282a5ab73ffffffffffffffffffffffffffffffffffffffff166108fc479081150290604051600060405180830381858888f19350505050158015610516573d6000803e3d6000fd5b505b565b60006020528060005260406000206000915090505481565b6000819050919050565b61054581610532565b82525050565b6000602082019050610560600083018461053c565b92915050565b600073ffffffffffffffffffffffffffffffffffffffff82169050919050565b600061059182610566565b9050919050565b6105a181610586565b82525050565b60006020820190506105bc6000830184610598565b92915050565b60008115159050919050565b6105d7816105c2565b82525050565b60006020820190506105f260008301846105ce565b92915050565b600080fd5b61060681610586565b811461061157600080fd5b50565b600081359050610623816105fd565b92915050565b60006020828403121561063f5761063e6105f8565b5b600061064d84828501610614565b91505092915050565b600082825260208201905092915050565b7f436f6e7472616374206973207061757365640000000000000000000000000000600082015250565b600061069d601283610656565b91506106a882610667565b602082019050919050565b600060208201905081810360008301526106cc81610690565b9050919050565b7f4e6f2066756e647320746f207769746864726177000000000000000000000000600082015250565b6000610709601483610656565b9150610714826106d3565b602082019050919050565b60006020820190508181036000830152610738816106fc565b9050919050565b7f4e487b7100000000000000000000000000000000000000000000000000000000600052601160045260246000fd5b600061077982610532565b915061078483610532565b925082820390508181111561079c5761079b61073f565b5b92915050565b60006107ad82610532565b91506107b883610532565b92508282019050808211156107d0576107cf61073f565b5b9291505056fea26469706673582212202ffad4385f9c44dffa3bdfece0dc5832ee18103ff02b3f5798ceeb4f277b3f8d64736f6c63430008180033",
  "linkReferences": {},
  "deployedLinkReferences": {}
}