{
  "_format": "hh-sol-artifact-1",
  "contractName": "ETHCollector",
  "sourceName": "contracts/poolValidatorETH.sol",
  "abi": [
    {
      "inputs": [],
      "name": "TARGET_BALANCE",
      "outputs": [
        {
          "internalType": "uint256",
          "name": "",
          "type": "uint256"
        }
      ],
      "stateMutability": "view",
      "type": "function"
    },
    {
      "inputs": [],
      "name": "WITHDRAWAL_ADDRESS",
      "outputs": [
        {
          "internalType": "address",
          "name": "",
          "type": "address"
        }
      ],
      "stateMutability": "view",
      "type": "function"
    },
    {
      "inputs": [],
      "name": "deposit",
      "outputs": [],
      "stateMutability": "payable",
      "type": "function"
    },
    {
      "inputs": [
        {
          "internalType": "address",
          "name": "",
          "type": "address"
        }
      ],
      "name": "deposits",
      "outputs": [
        {
          "internalType": "uint256",
          "name": "",
          "type": "uint256"
        }
      ],
      "stateMutability": "view",
      "type": "function"
    },
    {
      "inputs": [],
      "name": "getBalance",
      "outputs": [
        {
          "internalType": "uint256",
          "name": "",
          "type": "uint256"
        }
      ],
      "stateMutability": "view",
      "type": "function"
    },
    {
      "inputs": [],
      "name": "isPaused",
      "outputs": [
        {
          "internalType": "bool",
          "name": "",
          "type": "bool"
        }
      ],
      "stateMutability": "view",
      "type": "function"
    },
    {
      "inputs": [],
      "name": "totalDeposits",
      "outputs": [
        {
          "internalType": "uint256",
          "name": "",
          "type": "uint256"
        }
      ],
      "stateMutability": "view",
      "type": "function"
    },
    {
      "inputs": [],
      "name": "withdraw",
      "outputs": [],
      "stateMutability": "nonpayable",
      "type": "function"
    },
    {
      "stateMutability": "payable",
      "type": "receive"
    }
  ],
  "bytecode": "0x608060405234801561001057600080fd5b50610879806100206000396000f3fe60806040526004361061007f5760003560e01c80639be7ef641161004e5780639be7ef641461017b578063b187bd26146101a6578063d0e30db0146101d1578063fc7e286d146101db576100de565b806312065fe0146100e35780632601d3c71461010e5780633ccfd60b146101395780637d88209714610150576100de565b366100de57600260009054906101000a900460ff16156100d4576040517f08c379a00000000000000000000000000000000000000000000000000000000081526004016100cb906105fc565b60405180910390fd5b6100dc610218565b005b600080fd5b3480156100ef57600080fd5b506100f861032c565b6040516101059190610635565b60405180910390f35b34801561011a57600080fd5b50610123610372565b6040516101309190610691565b60405180910390f35b34801561014557600080fd5b5061014e61038a565b005b34801561015c57600080fd5b50610165610507565b6040516101729190610635565b60405180910390f35b34801561018757600080fd5b5061019061050d565b60405161019d9190610635565b60405180910390f35b3480156101b257600080fd5b506101bb61051a565b6040516101c891906106c7565b60405180910390f35b6101d961052d565b005b3480156101e757600080fd5b5061020260048036038101906101fd9190610713565b610587565b60405161020f9190610635565b60405180910390f35b346000803373ffffffffffffffffffffffffffffffffffffffff1673ffffffffffffffffffffffffffffffffffffffff1681526020019081526020016000206000828254610266919061076f565b92505081905550346001600082825461027f919061076f565b925050819055506801bc16d674ec800000600154101580156102ae5750600260009054906101000a900460ff16155b1561032a576001600260006101000a81548160ff02191690831515021790555073728d820c813e7cd9652c99355160480f9282a5ab73ffffffffffffffffffffffffffffffffffffffff166108fc479081150290604051600060405180830381858888f19350505050158015610328573d6000803e3d6000fd5b505b565b60008060003373ffffffffffffffffffffffffffffffffffffffff1673ffffffffffffffffffffffffffffffffffffffff16815260200190815260200160002054905090565b73728d820c813e7cd9652c99355160480f9282a5ab81565b600260009054906101000a900460ff16156103da576040517f08c379a00000000000000000000000000000000000000000000000000000000081526004016103d1906105fc565b60405180910390fd5b60008060003373ffffffffffffffffffffffffffffffffffffffff1673ffffffffffffffffffffffffffffffffffffffff16815260200190815260200160002054905060008111610460576040517f08c379a0000000000000000000000000000000000000000000000000000000008152600401610457906107ef565b60405180910390fd5b60008060003373ffffffffffffffffffffffffffffffffffffffff1673ffffffffffffffffffffffffffffffffffffffff1681526020019081526020016000208190555080600160008282546104b6919061080f565b925050819055503373ffffffffffffffffffffffffffffffffffffffff166108fc829081150290604051600060405180830381858888f19350505050158015610503573d6000803e3d6000fd5b5050565b60015481565b6801bc16d674ec80000081565b600260009054906101000a900460ff1681565b600260009054906101000a900460ff161561057d576040517f08c379a0000000000000000000000000000000000000000000000000000000008152600401610574906105fc565b60405180910390fd5b610585610218565b565b60006020528060005260406000206000915090505481565b600082825260208201905092915050565b7f436f6e7472616374206973207061757365640000000000000000000000000000600082015250565b60006105e660128361059f565b91506105f1826105b0565b602082019050919050565b60006020820190508181036000830152610615816105d9565b9050919050565b6000819050919050565b61062f8161061c565b82525050565b600060208201905061064a6000830184610626565b92915050565b600073ffffffffffffffffffffffffffffffffffffffff82169050919050565b600061067b82610650565b9050919050565b61068b81610670565b82525050565b60006020820190506106a66000830184610682565b92915050565b60008115159050919050565b6106c1816106ac565b82525050565b60006020820190506106dc60008301846106b8565b92915050565b600080fd5b6106f081610670565b81146106fb57600080fd5b50565b60008135905061070d816106e7565b92915050565b600060208284031215610729576107286106e2565b5b6000610737848285016106fe565b91505092915050565b7f4e487b7100000000000000000000000000000000000000000000000000000000600052601160045260246000fd5b600061077a8261061c565b91506107858361061c565b925082820190508082111561079d5761079c610740565b5b92915050565b7f4e6f2066756e647320746f207769746864726177000000000000000000000000600082015250565b60006107d960148361059f565b91506107e4826107a3565b602082019050919050565b60006020820190508181036000830152610808816107cc565b9050919050565b600061081a8261061c565b91506108258361061c565b925082820390508181111561083d5761083c610740565b5b9291505056fea2646970667358221220c21be7c109aa6059412e2d37c2cf7005c1c0d1b92bff56869abc58422f60a25164736f6c63430008180033",
  "linkReferences": {},
  "deployedLinkReferences": {}
}